:1000000012C02CC02BC02AC029C028C027C026C0BF
:1000100025C0A2C123C022C021C020C01FC01EC055
:100020001DC01CC01BC011241FBECFE5D4E0DEBF25
:10003000CDBF10E0A0E6B0E0EAE7F4E002C0059032
:100040000D92A038B107D9F720E0A0E8B0E001C0D8
:100050001D92AA38B207E1F7DFD10DC2D1CF949833
:10006000939A20E030E090E09298AC01022E02C01A
:10007000559547950A94E2F740FF02C0909A01C057
:100080009098929A2F5F3F4F2830310569F7919AE7
:10009000919892B384E0982792BB92B3892782BB50
:1000A000089582B3877E82BB919A9198949A08951D
:1000B000882311F094980895949A0895F89421E073
:1000C00020938000A82FB92FE2E8F0E026E830E086
:1000D0008D918193E217F307D9F778940895F894F6
:1000E00021E020938000A2E8B0E0FC01EF2FFF2781
:1000F000E295EF70E05AFF4F20812C93FC01EE2730
:10010000FF70EF2FFF27E05AFF4F208111962C93AD
:100110001197FC01E07FFF27F295E295EF70EF2742
:10012000FF70EF27E05AFF4F208112962C93129711
:100130008F709927FC01E05AFF4F808113968C93B2
:1001400078940895CF93C82F8AE790E0B7DF2FE720
:100150008AE196E0215080409040E1F700C0000025
:100160008C2F90E0BCDF2FE78AE196E021508040A1
:100170009040E1F700C00000F8941092800078945D
:10018000CF910895F89410928000E6E8F0E09DEC9D
:10019000899F212D1124269526952695299F312D5D
:1001A0001124369536953695330F432F440F440F5F
:1001B000340F422F431B4083220F322F330F330F54
:1001C000230F821B8183699F812D1124869586953B
:1001D0008695899F912D1124969596959695990FC0
:1001E000292F220F220F920F282F291B2283880FDD
:1001F000982F990F990F890F681B6383789408953E
:1002000084EA86BF06B607FEFDCF81B191B1887F33
:1002100021E0883009F420E0222351F0987F81E02A
:10022000903109F480E0882319F081B1887F8ADF5A
:10023000089583B984E886BF06B607FEFDCF21B1D5
:1002400091B131B1287F41E0283109F040E0987F39
:1002500081E0983209F080E0842B51F4387F81E00E
:10026000303409F080E0811103C081B1887F6ADFFA
:100270000895882321F086B7806486BF03C086B7BF
:100280008F7B86BF86B7846886BF06B607FEFDCF24
:1002900081B191B1887F21E0803509F420E02223EB
:1002A00051F0987F81E0983509F480E0882319F0B7
:1002B00081B1887F47DF83B1089586B7846986BF9F
:1002C0000895CF93C82F9CDF80917E00B2DF8C2FE2
:1002D000B0DF96DF80917E008160ABDF80E0C9DF18
:1002E000C82FEBDF8C2FCF91089581E0EADF982FA4
:1002F0009077969596959695292F220F220F920F1B
:100300008F70890F089582E0DCDF982F90739695A7
:1003100096959695292F220F220F920F8F70890F95
:10032000089584E0CEDF982F9073969596959695D4
:10033000292F220F220F920F8F70890F089585E0C9
:10034000C0DF84FB992790F9990F292F220F220FE4
:10035000920F8F70890F08951F920F920FB60F9210
:1003600011242F933F934F935F936F937F938F93BA
:100370009F93AF93BF93EF93FF9380E099DE25B3F4
:1003800081E090E000907F0002C0880F991F0A94DE
:10039000E2F78095822385BB80918000813041F413
:1003A000E0918100F0E0EE57FF4F808158DE0BC0F6
:1003B000E0918100F0E0EA57FF4FE081F0E0E05982
:1003C000FF4F80814CDE25B381E090E000908100FA
:1003D00002C0880F991F0A94E2F7822B85BB809197
:1003E000810080937F008F5F843018F480938100B8
:1003F00002C010928100FF91EF91BF91AF919F9148
:100400008F917F916F915F914F913F912F910F90BD
:100410000FBE0F901F90189581B38F6181BB41DE95
:1004200084B38F6084BB85B3807F85BB12BE83B7E6
:10043000826083BF89B7816089BF789482E080B988
:1004400070DFC82F7CDF682F8C2F9CDE2FE78AE1BE
:1004500096E0215080409040E1F700C0000045DF69
:10046000C82F51DF6C2F8EDE87EA91E60197F1F7F6
:0A04700000C00000F4CFF894FFCFA5
:10047A00FC60DAF266B6BEE0FEF6EE3E9C7A9E8E2E
:10048A00FC60DAF266B6BEE0FEF69E0A0A00D00307
:00000001FF
